{
  "contractName": "LibraryDemo",
  "abi": [
    {
      "constant": true,
      "inputs": [],
      "name": "owner",
      "outputs": [
        {
          "name": "",
          "type": "address"
        }
      ],
      "payable": false,
      "stateMutability": "view",
      "type": "function"
    },
    {
      "inputs": [],
      "payable": false,
      "stateMutability": "nonpayable",
      "type": "constructor"
    },
    {
      "constant": false,
      "inputs": [],
      "name": "GetData",
      "outputs": [
        {
          "name": "",
          "type": "uint256"
        }
      ],
      "payable": false,
      "stateMutability": "nonpayable",
      "type": "function"
    }
  ],
  "bytecode": "0x608060405234801561001057600080fd5b5033600160006101000a81548173ffffffffffffffffffffffffffffffffffffffff021916908373ffffffffffffffffffffffffffffffffffffffff16021790555073__TestLib_______________________________639447fa17600060026040518363ffffffff1660e01b8152600401808381526020018281526020019250505060006040518083038186803b1580156100ab57600080fd5b505af41580156100bf573d6000803e3d6000fd5b50505050610187806100d26000396000f3fe608060405234801561001057600080fd5b50600436106100365760003560e01c806376b8e5281461003b5780638da5cb5b14610059575b600080fd5b6100436100a3565b6040518082815260200191505060405180910390f35b610061610135565b604051808273ffffffffffffffffffffffffffffffffffffffff1673ffffffffffffffffffffffffffffffffffffffff16815260200191505060405180910390f35b600073__TestLib_______________________________63fc22471a60006040518263ffffffff1660e01b81526004018082815260200191505060206040518083038186803b1580156100f557600080fd5b505af4158015610109573d6000803e3d6000fd5b505050506040513d602081101561011f57600080fd5b8101908080519060200190929190505050905090565b600160009054906101000a900473ffffffffffffffffffffffffffffffffffffffff168156fea165627a7a723058209832ebff0762d081deb3210fae60250a94264035d2d003d3ff84b9964aa950360029",
  "deployedBytecode": "0x608060405234801561001057600080fd5b50600436106100365760003560e01c806376b8e5281461003b5780638da5cb5b14610059575b600080fd5b6100436100a3565b6040518082815260200191505060405180910390f35b610061610135565b604051808273ffffffffffffffffffffffffffffffffffffffff1673ffffffffffffffffffffffffffffffffffffffff16815260200191505060405180910390f35b600073__TestLib_______________________________63fc22471a60006040518263ffffffff1660e01b81526004018082815260200191505060206040518083038186803b1580156100f557600080fd5b505af4158015610109573d6000803e3d6000fd5b505050506040513d602081101561011f57600080fd5b8101908080519060200190929190505050905090565b600160009054906101000a900473ffffffffffffffffffffffffffffffffffffffff168156fea165627a7a723058209832ebff0762d081deb3210fae60250a94264035d2d003d3ff84b9964aa950360029",
  "source": "pragma solidity ^0.5.0;\n\nimport \"./TestLib.sol\";\n\ncontract LibraryDemo {\n  TestLib.Data data;\n  address public owner;\n\n  constructor() public {\n    owner = msg.sender;\n    TestLib.Set(data, 2);\n  }\n\n  function GetData() public returns(uint) {\n    return TestLib.Get(data);\n  }\n}",
  "sourcePath": "/Users/bill8575/Work/Dev/Ethereum/truffle/LibraryDemo/contracts/LibraryDemo.sol",
  "compiler": {
    "name": "solc",
    "version": "0.5.8+commit.23d335f2.Emscripten.clang"
  },
  "schemaVersion": "3.0.11",
  "updatedAt": "2019-07-30T17:10:31.183Z",
  "devdoc": {
    "methods": {}
  },
  "userdoc": {
    "methods": {}
  }
}